{
  "contractName": "Election",
  "abi": [
    {
      "inputs": [
        {
          "internalType": "string",
          "name": "_question",
          "type": "string"
        },
        {
          "internalType": "string[]",
          "name": "candidateNames",
          "type": "string[]"
        },
        {
          "internalType": "address",
          "name": "_RegistrationContractAddress",
          "type": "address"
        },
        {
          "internalType": "uint256",
          "name": "_startElectionTime",
          "type": "uint256"
        },
        {
          "internalType": "uint256",
          "name": "_endElectionTime",
          "type": "uint256"
        }
      ],
      "stateMutability": "nonpayable",
      "type": "constructor"
    },
    {
      "anonymous": false,
      "inputs": [
        {
          "indexed": true,
          "internalType": "uint256",
          "name": "_candidateId",
          "type": "uint256"
        }
      ],
      "name": "votedEvent",
      "type": "event"
    },
    {
      "inputs": [],
      "name": "EndElectionTime",
      "outputs": [
        {
          "internalType": "uint256",
          "name": "",
          "type": "uint256"
        }
      ],
      "stateMutability": "view",
      "type": "function"
    },
    {
      "inputs": [],
      "name": "Question",
      "outputs": [
        {
          "internalType": "string",
          "name": "",
          "type": "string"
        }
      ],
      "stateMutability": "view",
      "type": "function"
    },
    {
      "inputs": [],
      "name": "RegistrationContractAddress",
      "outputs": [
        {
          "internalType": "address",
          "name": "",
          "type": "address"
        }
      ],
      "stateMutability": "view",
      "type": "function"
    },
    {
      "inputs": [],
      "name": "StartElectionTime",
      "outputs": [
        {
          "internalType": "uint256",
          "name": "",
          "type": "uint256"
        }
      ],
      "stateMutability": "view",
      "type": "function"
    },
    {
      "inputs": [
        {
          "internalType": "uint256",
          "name": "",
          "type": "uint256"
        }
      ],
      "name": "candidates",
      "outputs": [
        {
          "internalType": "uint256",
          "name": "id",
          "type": "uint256"
        },
        {
          "internalType": "string",
          "name": "name",
          "type": "string"
        },
        {
          "internalType": "uint256",
          "name": "voteCount",
          "type": "uint256"
        }
      ],
      "stateMutability": "view",
      "type": "function"
    },
    {
      "inputs": [],
      "name": "candidatesCount",
      "outputs": [
        {
          "internalType": "uint256",
          "name": "",
          "type": "uint256"
        }
      ],
      "stateMutability": "view",
      "type": "function"
    },
    {
      "inputs": [],
      "name": "ended",
      "outputs": [
        {
          "internalType": "bool",
          "name": "",
          "type": "bool"
        }
      ],
      "stateMutability": "view",
      "type": "function"
    },
    {
      "inputs": [
        {
          "internalType": "address",
          "name": "",
          "type": "address"
        }
      ],
      "name": "voters",
      "outputs": [
        {
          "internalType": "bool",
          "name": "",
          "type": "bool"
        }
      ],
      "stateMutability": "view",
      "type": "function"
    },
    {
      "inputs": [
        {
          "internalType": "string",
          "name": "_name",
          "type": "string"
        }
      ],
      "name": "addCandidate",
      "outputs": [],
      "stateMutability": "payable",
      "type": "function"
    },
    {
      "inputs": [
        {
          "internalType": "uint256",
          "name": "_candidateId",
          "type": "uint256"
        }
      ],
      "name": "vote",
      "outputs": [],
      "stateMutability": "nonpayable",
      "type": "function"
    },
    {
      "inputs": [],
      "name": "endElection",
      "outputs": [],
      "stateMutability": "nonpayable",
      "type": "function"
    }
  ],
  "bytecode": "0x60806040523480156200001157600080fd5b5060405162001486380380620014868339818101604052810190620000379190620003c7565b84600290805190602001906200004f9291906200019c565b5060005b8451811015620000a1576200008b858281518110620000775762000076620006a7565b5b60200260200101516200011760201b60201c565b80806200009890620005fb565b91505062000053565b5082600360006101000a81548173ffffffffffffffffffffffffffffffffffffffff021916908373ffffffffffffffffffffffffffffffffffffffff16021790555081600481905550806005819055506000600760006101000a81548160ff021916908315150217905550505050505062000763565b600160008154809291906200012c90620005fb565b919050555060405180606001604052806001548152602001828152602001600081525060008060015481526020019081526020016000206000820151816000015560208201518160010190805190602001906200018b9291906200019c565b506040820151816002015590505050565b828054620001aa906200058f565b90600052602060002090601f016020900481019282620001ce57600085556200021a565b82601f10620001e957805160ff19168380011785556200021a565b828001600101855582156200021a579182015b8281111562000219578251825591602001919060010190620001fc565b5b5090506200022991906200022d565b5090565b5b80821115620002485760008160009055506001016200022e565b5090565b6000620002636200025d84620004b6565b6200048d565b905080838252602082019050828560208602820111156200028957620002886200070a565b5b60005b85811015620002de57815167ffffffffffffffff811115620002b357620002b262000705565b5b808601620002c289826200037d565b855260208501945060208401935050506001810190506200028c565b5050509392505050565b6000620002ff620002f984620004e5565b6200048d565b9050828152602081018484840111156200031e576200031d6200070f565b5b6200032b84828562000559565b509392505050565b60008151905062000344816200072f565b92915050565b600082601f83011262000362576200036162000705565b5b8151620003748482602086016200024c565b91505092915050565b600082601f83011262000395576200039462000705565b5b8151620003a7848260208601620002e8565b91505092915050565b600081519050620003c18162000749565b92915050565b600080600080600060a08688031215620003e657620003e562000719565b5b600086015167ffffffffffffffff81111562000407576200040662000714565b5b62000415888289016200037d565b955050602086015167ffffffffffffffff81111562000439576200043862000714565b5b62000447888289016200034a565b94505060406200045a8882890162000333565b93505060606200046d88828901620003b0565b92505060806200048088828901620003b0565b9150509295509295909350565b600062000499620004ac565b9050620004a78282620005c5565b919050565b6000604051905090565b600067ffffffffffffffff821115620004d457620004d3620006d6565b5b602082029050602081019050919050565b600067ffffffffffffffff821115620005035762000502620006d6565b5b6200050e826200071e565b9050602081019050919050565b600062000528826200052f565b9050919050565b600073ffffffffffffffffffffffffffffffffffffffff82169050919050565b6000819050919050565b60005b83811015620005795780820151818401526020810190506200055c565b8381111562000589576000848401525b50505050565b60006002820490506001821680620005a857607f821691505b60208210811415620005bf57620005be62000678565b5b50919050565b620005d0826200071e565b810181811067ffffffffffffffff82111715620005f257620005f1620006d6565b5b80604052505050565b600062000608826200054f565b91507fffffffffffffffffffffffffffffffffffffffffffffffffffffffffffffffff8214156200063e576200063d62000649565b5b600182019050919050565b7f4e487b7100000000000000000000000000000000000000000000000000000000600052601160045260246000fd5b7f4e487b7100000000000000000000000000000000000000000000000000000000600052602260045260246000fd5b7f4e487b7100000000000000000000000000000000000000000000000000000000600052603260045260246000fd5b7f4e487b7100000000000000000000000000000000000000000000000000000000600052604160045260246000fd5b600080fd5b600080fd5b600080fd5b600080fd5b600080fd5b6000601f19601f8301169050919050565b6200073a816200051b565b81146200074657600080fd5b50565b62000754816200054f565b81146200076057600080fd5b50565b610d1380620007736000396000f3fe60806040526004361061009c5760003560e01c8063462e91ec11610064578063462e91ec1461018a57806359f78468146101a657806364b945bd146101bd578063a0b1b219146101e8578063a3ec138d14610213578063c8166a8a146102505761009c565b80630121b93f146100a157806312fa6feb146100ca578063243320e2146100f55780632d35a8a2146101205780633477ee2e1461014b575b600080fd5b3480156100ad57600080fd5b506100c860048036038101906100c391906108fa565b61027b565b005b3480156100d657600080fd5b506100df6103d6565b6040516100ec91906109a8565b60405180910390f35b34801561010157600080fd5b5061010a6103e9565b60405161011791906109e5565b60405180910390f35b34801561012c57600080fd5b506101356103ef565b60405161014291906109e5565b60405180910390f35b34801561015757600080fd5b50610172600480360381019061016d91906108fa565b6103f5565b60405161018193929190610a00565b60405180910390f35b6101a4600480360381019061019f91906108b1565b6104a7565b005b3480156101b257600080fd5b506101bb610528565b005b3480156101c957600080fd5b506101d2610572565b6040516101df919061098d565b60405180910390f35b3480156101f457600080fd5b506101fd610598565b60405161020a91906109e5565b60405180910390f35b34801561021f57600080fd5b5061023a60048036038101906102359190610857565b61059e565b60405161024791906109a8565b60405180910390f35b34801561025c57600080fd5b506102656105be565b60405161027291906109c3565b60405180910390f35b600660003373ffffffffffffffffffffffffffffffffffffffff1673ffffffffffffffffffffffffffffffffffffffff16815260200190815260200160002060009054906101000a900460ff161580156102d55750600081115b80156102e357506001548111155b80156102fc5750600760009054906101000a900460ff16155b801561030d575061030c3361064c565b5b801561031a575060045442115b61032357600080fd5b6001600660003373ffffffffffffffffffffffffffffffffffffffff1673ffffffffffffffffffffffffffffffffffffffff16815260200190815260200160002060006101000a81548160ff02191690831515021790555060008082815260200190815260200160002060020160008154809291906103a190610b9d565b9190505550807ffff3c900d938d21d0990d786e819f29b8d05c1ef587b462b939609625b684b1660405160405180910390a250565b600760009054906101000a900460ff1681565b60055481565b60015481565b600060205280600052604060002060009150905080600001549080600101805461041e90610b3a565b80601f016020809104026020016040519081016040528092919081815260200182805461044a90610b3a565b80156104975780601f1061046c57610100808354040283529160200191610497565b820191906000526020600020905b81548152906001019060200180831161047a57829003601f168201915b5050505050908060020154905083565b600160008154809291906104ba90610b9d565b91905055506040518060600160405280600154815260200182815260200160008152506000806001548152602001908152602001600020600082015181600001556020820151816001019080519060200190610517929190610705565b506040820151816002015590505050565b60001515600760009054906101000a900460ff16151514801561054c575060055442115b61055557600080fd5b6001600760006101000a81548160ff021916908315150217905550565b600360009054906101000a900473ffffffffffffffffffffffffffffffffffffffff1681565b60045481565b60066020528060005260406000206000915054906101000a900460ff1681565b600280546105cb90610b3a565b80601f01602080910402602001604051908101604052809291908181526020018280546105f790610b3a565b80156106445780601f1061061957610100808354040283529160200191610644565b820191906000526020600020905b81548152906001019060200180831161062757829003601f168201915b505050505081565b600080600360009054906101000a900473ffffffffffffffffffffffffffffffffffffffff1690508073ffffffffffffffffffffffffffffffffffffffff16632b5ee195846040518263ffffffff1660e01b81526004016106ad919061098d565b60206040518083038186803b1580156106c557600080fd5b505afa1580156106d9573d6000803e3d6000fd5b505050506040513d601f19601f820116820180604052508101906106fd9190610884565b915050919050565b82805461071190610b3a565b90600052602060002090601f016020900481019282610733576000855561077a565b82601f1061074c57805160ff191683800117855561077a565b8280016001018555821561077a579182015b8281111561077957825182559160200191906001019061075e565b5b509050610787919061078b565b5090565b5b808211156107a457600081600090555060010161078c565b5090565b60006107bb6107b684610a63565b610a3e565b9050828152602081018484840111156107d7576107d6610c78565b5b6107e2848285610af8565b509392505050565b6000813590506107f981610c98565b92915050565b60008151905061080e81610caf565b92915050565b600082601f83011261082957610828610c73565b5b81356108398482602086016107a8565b91505092915050565b60008135905061085181610cc6565b92915050565b60006020828403121561086d5761086c610c82565b5b600061087b848285016107ea565b91505092915050565b60006020828403121561089a57610899610c82565b5b60006108a8848285016107ff565b91505092915050565b6000602082840312156108c7576108c6610c82565b5b600082013567ffffffffffffffff8111156108e5576108e4610c7d565b5b6108f184828501610814565b91505092915050565b6000602082840312156109105761090f610c82565b5b600061091e84828501610842565b91505092915050565b61093081610ab0565b82525050565b61093f81610ac2565b82525050565b600061095082610a94565b61095a8185610a9f565b935061096a818560208601610b07565b61097381610c87565b840191505092915050565b61098781610aee565b82525050565b60006020820190506109a26000830184610927565b92915050565b60006020820190506109bd6000830184610936565b92915050565b600060208201905081810360008301526109dd8184610945565b905092915050565b60006020820190506109fa600083018461097e565b92915050565b6000606082019050610a15600083018661097e565b8181036020830152610a278185610945565b9050610a36604083018461097e565b949350505050565b6000610a48610a59565b9050610a548282610b6c565b919050565b6000604051905090565b600067ffffffffffffffff821115610a7e57610a7d610c44565b5b610a8782610c87565b9050602081019050919050565b600081519050919050565b600082825260208201905092915050565b6000610abb82610ace565b9050919050565b60008115159050919050565b600073ffffffffffffffffffffffffffffffffffffffff82169050919050565b6000819050919050565b82818337600083830152505050565b60005b83811015610b25578082015181840152602081019050610b0a565b83811115610b34576000848401525b50505050565b60006002820490506001821680610b5257607f821691505b60208210811415610b6657610b65610c15565b5b50919050565b610b7582610c87565b810181811067ffffffffffffffff82111715610b9457610b93610c44565b5b80604052505050565b6000610ba882610aee565b91507fffffffffffffffffffffffffffffffffffffffffffffffffffffffffffffffff821415610bdb57610bda610be6565b5b600182019050919050565b7f4e487b7100000000000000000000000000000000000000000000000000000000600052601160045260246000fd5b7f4e487b7100000000000000000000000000000000000000000000000000000000600052602260045260246000fd5b7f4e487b7100000000000000000000000000000000000000000000000000000000600052604160045260246000fd5b600080fd5b600080fd5b600080fd5b600080fd5b6000601f19601f8301169050919050565b610ca181610ab0565b8114610cac57600080fd5b50565b610cb881610ac2565b8114610cc357600080fd5b50565b610ccf81610aee565b8114610cda57600080fd5b5056fea2646970667358221220c6b81bdf845ada04971d9b0e479010083fd34e1b83462d92d48f592e6ad1b36d64736f6c63430008070033",
  "immutableReferences": {},
  "source": "pragma solidity 0.8.7;\r\n// SPDX-License-Identifier: MIT\r\nimport \"./Register.sol\";\r\n\r\ncontract Election {\r\n\r\n\t// Model a candidate\r\n\tstruct Candidate {\r\n\t\tuint id;\r\n\t\tstring name;\r\n\t\tuint voteCount;\r\n\t}\r\n\t// Store Candidates\r\n\t// Fetch Candidates\r\n\tmapping(uint => Candidate) public candidates;\r\n\t// Store Candidates count\r\n\tuint public candidatesCount;\r\n\t// Store accounts that have voted\r\n\r\n\tstring public Question;\r\n\taddress public RegistrationContractAddress;\r\n\tuint public StartElectionTime;\r\n\tuint public EndElectionTime;\r\n\r\n\tmapping(address => bool) public voters;\r\n\tbool public ended;\r\n\r\n\r\n\r\n\t// voted event\r\n\tevent votedEvent(uint indexed _candidateId);\r\n\r\n\t// Constructor\r\n\tconstructor (\r\n\t\tstring memory _question, \r\n\t\tstring[] memory candidateNames,\r\n\t\taddress _RegistrationContractAddress,\r\n\t\tuint256 _startElectionTime,\r\n\t\tuint256 _endElectionTime\r\n\t\t) {\t\t\r\n\t\t\tQuestion = _question;\r\n\t\t\tfor (uint i = 0; i < candidateNames.length; i++){\r\n\t\t\t\taddCandidate(candidateNames[i]);\r\n\t\t\t}\r\n\t\t\tRegistrationContractAddress = _RegistrationContractAddress;\r\n\t\t\tStartElectionTime = _startElectionTime; \r\n\t\t\tEndElectionTime = _endElectionTime;\r\n\t\t\tended = false;\r\n\t}\r\n\r\n\tfunction addCandidate(string memory _name) public payable {\r\n\t\tcandidatesCount++;\r\n\t\tcandidates[candidatesCount] = Candidate(candidatesCount, _name, 0);\r\n\t}\r\n\r\n    function isEligble(address _address) private returns(bool) {\r\n\t    Register reg = Register(RegistrationContractAddress);\r\n    \treturn reg.isEligble(_address);\r\n\t}\r\n\r\n\tfunction vote(uint _candidateId) public {\r\n\r\n\t\t// require that they haven't voted before\r\n\t\t// require a valid candidate\r\n\r\n\t\trequire(!voters[msg.sender] && \r\n\t\t\t_candidateId > 0 && \r\n\t\t\t_candidateId <= candidatesCount && \r\n\t\t\t!ended && \r\n\t\t\tisEligble(msg.sender) &&\r\n\t\t\tblock.timestamp > StartElectionTime);\r\n\r\n\t\t// record that voter has voted\r\n\t\tvoters[msg.sender] = true;\r\n\r\n\t\t// update candidate vote count\r\n\t\tcandidates[_candidateId].voteCount ++;\r\n\r\n\t\t// trigger voting event\r\n\t\temit votedEvent(_candidateId);\r\n\t}\r\n\r\n\tfunction endElection() public {\r\n\r\n\t\trequire(ended == false && block.timestamp > EndElectionTime);\r\n\r\n\t\tended = true;\r\n\r\n\t}\r\n}\r\n",
  "sourcePath": "C:\\Users\\dario\\Documents\\Master Data Science\\Data Security\\election-dapp\\contracts\\Election.sol",
  "compiler": {
    "name": "solc",
    "version": "0.8.7+commit.e28d00a7.Emscripten.clang"
  },
  "schemaVersion": "3.4.11",
  "updatedAt": "2023-02-05T22:43:21.838Z",
  "devdoc": {
    "kind": "dev",
    "methods": {},
    "version": 1
  },
  "userdoc": {
    "kind": "user",
    "methods": {},
    "version": 1
  }
}