{
  "contractName": "Election",
  "abi": [
    {
      "inputs": [],
      "stateMutability": "nonpayable",
      "type": "constructor"
    },
    {
      "anonymous": false,
      "inputs": [
        {
          "indexed": true,
          "internalType": "uint256",
          "name": "_candidateId",
          "type": "uint256"
        }
      ],
      "name": "votedEvent",
      "type": "event"
    },
    {
      "inputs": [
        {
          "internalType": "uint256",
          "name": "",
          "type": "uint256"
        }
      ],
      "name": "candidates",
      "outputs": [
        {
          "internalType": "uint256",
          "name": "id",
          "type": "uint256"
        },
        {
          "internalType": "string",
          "name": "name",
          "type": "string"
        },
        {
          "internalType": "uint256",
          "name": "voteCount",
          "type": "uint256"
        }
      ],
      "stateMutability": "view",
      "type": "function",
      "constant": true
    },
    {
      "inputs": [],
      "name": "candidatesCount",
      "outputs": [
        {
          "internalType": "uint256",
          "name": "",
          "type": "uint256"
        }
      ],
      "stateMutability": "view",
      "type": "function",
      "constant": true
    },
    {
      "inputs": [],
      "name": "ended",
      "outputs": [
        {
          "internalType": "bool",
          "name": "",
          "type": "bool"
        }
      ],
      "stateMutability": "view",
      "type": "function",
      "constant": true
    },
    {
      "inputs": [
        {
          "internalType": "address",
          "name": "",
          "type": "address"
        }
      ],
      "name": "voters",
      "outputs": [
        {
          "internalType": "bool",
          "name": "",
          "type": "bool"
        }
      ],
      "stateMutability": "view",
      "type": "function",
      "constant": true
    },
    {
      "inputs": [
        {
          "internalType": "uint256",
          "name": "_candidateId",
          "type": "uint256"
        }
      ],
      "name": "vote",
      "outputs": [],
      "stateMutability": "nonpayable",
      "type": "function"
    },
    {
      "inputs": [
        {
          "internalType": "uint256",
          "name": "_candidateId",
          "type": "uint256"
        }
      ],
      "name": "endElection",
      "outputs": [],
      "stateMutability": "nonpayable",
      "type": "function"
    }
  ],
  "bytecode": "0x608060405234801561001057600080fd5b506100556040518060400160405280600981526020017f43686f636f6c61746500000000000000000000000000000000000000000000008152506100b960201b60201c565b6100996040518060400160405280600781526020017f56616e696c6c61000000000000000000000000000000000000000000000000008152506100b960201b60201c565b6000600160006101000a81548160ff0219169083151502179055506102c1565b600360008154809291906100cc9061021a565b919050555060405180606001604052806003548152602001828152602001600081525060026000600354815260200190815260200160002060008201518160000155602082015181600101908051906020019061012a92919061013b565b506040820151816002015590505050565b828054610147906101e8565b90600052602060002090601f01602090048101928261016957600085556101b0565b82601f1061018257805160ff19168380011785556101b0565b828001600101855582156101b0579182015b828111156101af578251825591602001919060010190610194565b5b5090506101bd91906101c1565b5090565b5b808211156101da5760008160009055506001016101c2565b5090565b6000819050919050565b6000600282049050600182168061020057607f821691505b6020821081141561021457610213610292565b5b50919050565b6000610225826101de565b91507fffffffffffffffffffffffffffffffffffffffffffffffffffffffffffffffff82141561025857610257610263565b5b600182019050919050565b7f4e487b7100000000000000000000000000000000000000000000000000000000600052601160045260246000fd5b7f4e487b7100000000000000000000000000000000000000000000000000000000600052602260045260246000fd5b6106ba806102d06000396000f3fe608060405234801561001057600080fd5b50600436106100625760003560e01c80630121b93f1461006757806312fa6feb146100835780632d35a8a2146100a15780633477ee2e146100bf5780639c98bcbb146100f1578063a3ec138d1461010d575b600080fd5b610081600480360381019061007c91906103d8565b61013d565b005b61008b610279565b604051610098919061045c565b60405180910390f35b6100a961028c565b6040516100b69190610477565b60405180910390f35b6100d960048036038101906100d491906103d8565b610292565b6040516100e893929190610492565b60405180910390f35b61010b600480360381019061010691906103d8565b610344565b005b610127600480360381019061012291906103ab565b610361565b604051610134919061045c565b60405180910390f35b6000803373ffffffffffffffffffffffffffffffffffffffff1673ffffffffffffffffffffffffffffffffffffffff16815260200190815260200160002060009054906101000a900460ff161580156101965750600081115b80156101a457506003548111155b80156101bd5750600160009054906101000a900460ff16155b6101c657600080fd5b60016000803373ffffffffffffffffffffffffffffffffffffffff1673ffffffffffffffffffffffffffffffffffffffff16815260200190815260200160002060006101000a81548160ff02191690831515021790555060026000828152602001908152602001600020600201600081548092919061024490610599565b9190505550807ffff3c900d938d21d0990d786e819f29b8d05c1ef587b462b939609625b684b1660405160405180910390a250565b600160009054906101000a900460ff1681565b60035481565b60026020528060005260406000206000915090508060000154908060010180546102bb90610567565b80601f01602080910402602001604051908101604052809291908181526020018280546102e790610567565b80156103345780601f1061030957610100808354040283529160200191610334565b820191906000526020600020905b81548152906001019060200180831161031757829003601f168201915b5050505050908060020154905083565b60018060006101000a81548160ff02191690831515021790555050565b60006020528060005260406000206000915054906101000a900460ff1681565b60008135905061039081610656565b92915050565b6000813590506103a58161066d565b92915050565b6000602082840312156103c1576103c0610640565b5b60006103cf84828501610381565b91505092915050565b6000602082840312156103ee576103ed610640565b5b60006103fc84828501610396565b91505092915050565b61040e816104fe565b82525050565b600061041f826104d0565b61042981856104db565b9350610439818560208601610534565b61044281610645565b840191505092915050565b6104568161052a565b82525050565b60006020820190506104716000830184610405565b92915050565b600060208201905061048c600083018461044d565b92915050565b60006060820190506104a7600083018661044d565b81810360208301526104b98185610414565b90506104c8604083018461044d565b949350505050565b600081519050919050565b600082825260208201905092915050565b60006104f78261050a565b9050919050565b60008115159050919050565b600073ffffffffffffffffffffffffffffffffffffffff82169050919050565b6000819050919050565b60005b83811015610552578082015181840152602081019050610537565b83811115610561576000848401525b50505050565b6000600282049050600182168061057f57607f821691505b6020821081141561059357610592610611565b5b50919050565b60006105a48261052a565b91507fffffffffffffffffffffffffffffffffffffffffffffffffffffffffffffffff8214156105d7576105d66105e2565b5b600182019050919050565b7f4e487b7100000000000000000000000000000000000000000000000000000000600052601160045260246000fd5b7f4e487b7100000000000000000000000000000000000000000000000000000000600052602260045260246000fd5b600080fd5b6000601f19601f8301169050919050565b61065f816104ec565b811461066a57600080fd5b50565b6106768161052a565b811461068157600080fd5b5056fea2646970667358221220c304b16ce0a40d6662380e848af9fe662767a5977a5a8a005ff01e623ab8c22c64736f6c63430008070033",
  "immutableReferences": {},
  "source": "pragma solidity 0.8.7;\r\n\r\ncontract Election {\r\n\r\n\t// Store accounts that have voted\r\n\tmapping(address => bool) public voters;\r\n\r\n\tbool public ended;\r\n\r\n\t// Model a candidate\r\n\tstruct Candidate {\r\n\t\tuint id;\r\n\t\tstring name;\r\n\t\tuint voteCount;\r\n\t}\r\n\t// Store Candidates\r\n\t// Fetch Candidates\r\n\tmapping(uint => Candidate) public candidates;\r\n\t// Store Candidates count\r\n\tuint public candidatesCount;\r\n\r\n\t// voted event\r\n\tevent votedEvent(uint indexed _candidateId);\r\n\r\n\t// Constructor\r\n\tconstructor() {\r\n\t\taddCandidate(\"Chocolate\");\r\n\t\taddCandidate(\"Vanilla\");\r\n\t\tended = false;\r\n\t}\r\n\r\n\tfunction addCandidate(string memory _name) private {\r\n\t\tcandidatesCount++;\r\n\t\tcandidates[candidatesCount] = Candidate(candidatesCount, _name, 0);\r\n\t}\r\n\r\n\tfunction vote(uint _candidateId) public {\r\n\r\n\t\t// require that they haven't voted before\r\n\t\t// require a valid candidate\r\n\r\n\t\trequire(!voters[msg.sender] && _candidateId > 0 && _candidateId <= candidatesCount && !ended);\r\n\r\n\t\t// record that voter has voted\r\n\t\tvoters[msg.sender] = true;\r\n\r\n\t\t// update candidate vote count\r\n\t\tcandidates[_candidateId].voteCount ++;\r\n\r\n\t\t// trigger voting event\r\n\t\temit votedEvent(_candidateId);\r\n\t}\r\n\r\n\tfunction endElection(uint _candidateId) public {\r\n\r\n\t\tended = true;\r\n\r\n\t}\r\n}\r\n",
  "sourcePath": "E:\\LMU\\Semester 3\\Data Security\\DApp\\registration_dapp\\contracts\\Election.sol",
  "compiler": {
    "name": "solc",
    "version": "0.8.7+commit.e28d00a7.Emscripten.clang"
  },
  "schemaVersion": "3.4.11",
  "updatedAt": "2023-02-04T22:25:07.489Z",
  "networkType": "ethereum",
  "devdoc": {
    "kind": "dev",
    "methods": {},
    "version": 1
  },
  "userdoc": {
    "kind": "user",
    "methods": {},
    "version": 1
  }
}