{
  "contractName": "Register",
  "abi": [
    {
      "inputs": [
        {
          "internalType": "bytes32[]",
          "name": "studentHashes",
          "type": "bytes32[]"
        }
      ],
      "stateMutability": "nonpayable",
      "type": "constructor"
    },
    {
      "inputs": [
        {
          "internalType": "address",
          "name": "",
          "type": "address"
        }
      ],
      "name": "EligbleVotersAddresses",
      "outputs": [
        {
          "internalType": "bool",
          "name": "",
          "type": "bool"
        }
      ],
      "stateMutability": "view",
      "type": "function",
      "constant": true
    },
    {
      "inputs": [
        {
          "internalType": "bytes32",
          "name": "",
          "type": "bytes32"
        }
      ],
      "name": "RegisteredStudentHashes",
      "outputs": [
        {
          "internalType": "bool",
          "name": "",
          "type": "bool"
        }
      ],
      "stateMutability": "view",
      "type": "function",
      "constant": true
    },
    {
      "inputs": [
        {
          "internalType": "bytes32",
          "name": "studentHash",
          "type": "bytes32"
        }
      ],
      "name": "addStudentHash",
      "outputs": [],
      "stateMutability": "nonpayable",
      "type": "function"
    },
    {
      "inputs": [
        {
          "internalType": "address",
          "name": "_address",
          "type": "address"
        }
      ],
      "name": "isEligble",
      "outputs": [
        {
          "internalType": "bool",
          "name": "",
          "type": "bool"
        }
      ],
      "stateMutability": "view",
      "type": "function",
      "constant": true
    },
    {
      "inputs": [
        {
          "internalType": "string",
          "name": "passcode",
          "type": "string"
        }
      ],
      "name": "verify",
      "outputs": [],
      "stateMutability": "nonpayable",
      "type": "function"
    }
  ],
  "bytecode": "0x60806040523480156200001157600080fd5b5060405162000add38038062000add83398181016040528101906200003791906200017b565b60005b81518163ffffffff161015620000ae576001806000848463ffffffff16815181106200006b576200006a620002d5565b5b6020026020010151815260200190815260200160002060006101000a81548160ff0219169083151502179055508080620000a59062000274565b9150506200003a565b505062000372565b6000620000cd620000c784620001f5565b620001cc565b90508083825260208201905082856020860282011115620000f357620000f262000338565b5b60005b858110156200012757816200010c888262000164565b845260208401935060208301925050600181019050620000f6565b5050509392505050565b600082601f83011262000149576200014862000333565b5b81516200015b848260208601620000b6565b91505092915050565b600081519050620001758162000358565b92915050565b60006020828403121562000194576200019362000342565b5b600082015167ffffffffffffffff811115620001b557620001b46200033d565b5b620001c38482850162000131565b91505092915050565b6000620001d8620001eb565b9050620001e682826200023e565b919050565b6000604051905090565b600067ffffffffffffffff82111562000213576200021262000304565b5b602082029050602081019050919050565b6000819050919050565b600063ffffffff82169050919050565b620002498262000347565b810181811067ffffffffffffffff821117156200026b576200026a62000304565b5b80604052505050565b600062000281826200022e565b915063ffffffff8214156200029b576200029a620002a6565b5b600182019050919050565b7f4e487b7100000000000000000000000000000000000000000000000000000000600052601160045260246000fd5b7f4e487b7100000000000000000000000000000000000000000000000000000000600052603260045260246000fd5b7f4e487b7100000000000000000000000000000000000000000000000000000000600052604160045260246000fd5b600080fd5b600080fd5b600080fd5b600080fd5b6000601f19601f8301169050919050565b620003638162000224565b81146200036f57600080fd5b50565b61075b80620003826000396000f3fe608060405234801561001057600080fd5b50600436106100575760003560e01c80632b5ee1951461005c57806357b3efe11461008c5780635838ed31146100a8578063b130c644146100d8578063bb9c6c3e14610108575b600080fd5b610076600480360381019061007191906103dc565b610124565b604051610083919061054b565b60405180910390f35b6100a660048036038101906100a19190610409565b610191565b005b6100c260048036038101906100bd9190610409565b6101f1565b6040516100cf919061054b565b60405180910390f35b6100f260048036038101906100ed91906103dc565b610211565b6040516100ff919061054b565b60405180910390f35b610122600480360381019061011d9190610463565b610231565b005b6000600115156000808473ffffffffffffffffffffffffffffffffffffffff1673ffffffffffffffffffffffffffffffffffffffff16815260200190815260200160002060009054906101000a900460ff1615151415610187576001905061018c565b600090505b919050565b600115156001600083815260200190815260200160002060009054906101000a900460ff16151514156101c357600080fd5b600180600083815260200190815260200160002060006101000a81548160ff02191690831515021790555050565b60016020528060005260406000206000915054906101000a900460ff1681565b60006020528060005260406000206000915054906101000a900460ff1681565b60006002826040516020016102469190610534565b604051602081830303815290604052604051610262919061051d565b602060405180830381855afa15801561027f573d6000803e3d6000fd5b5050506040513d601f19601f820116820180604052508101906102a29190610436565b9050600115156001600083815260200190815260200160002060009054906101000a900460ff16151514156103295760016000803373ffffffffffffffffffffffffffffffffffffffff1673ffffffffffffffffffffffffffffffffffffffff16815260200190815260200160002060006101000a81548160ff0219169083151502179055505b5050565b600061034061033b8461058b565b610566565b90508281526020810184848401111561035c5761035b6106d7565b5b610367848285610630565b509392505050565b60008135905061037e816106f7565b92915050565b6000813590506103938161070e565b92915050565b6000815190506103a88161070e565b92915050565b600082601f8301126103c3576103c26106d2565b5b81356103d384826020860161032d565b91505092915050565b6000602082840312156103f2576103f16106e1565b5b60006104008482850161036f565b91505092915050565b60006020828403121561041f5761041e6106e1565b5b600061042d84828501610384565b91505092915050565b60006020828403121561044c5761044b6106e1565b5b600061045a84828501610399565b91505092915050565b600060208284031215610479576104786106e1565b5b600082013567ffffffffffffffff811115610497576104966106dc565b5b6104a3848285016103ae565b91505092915050565b6104b5816105fa565b82525050565b60006104c6826105bc565b6104d081856105d2565b93506104e081856020860161063f565b80840191505092915050565b60006104f7826105c7565b61050181856105dd565b935061051181856020860161063f565b80840191505092915050565b600061052982846104bb565b915081905092915050565b600061054082846104ec565b915081905092915050565b600060208201905061056060008301846104ac565b92915050565b6000610570610581565b905061057c8282610672565b919050565b6000604051905090565b600067ffffffffffffffff8211156105a6576105a56106a3565b5b6105af826106e6565b9050602081019050919050565b600081519050919050565b600081519050919050565b600081905092915050565b600081905092915050565b60006105f382610610565b9050919050565b60008115159050919050565b6000819050919050565b600073ffffffffffffffffffffffffffffffffffffffff82169050919050565b82818337600083830152505050565b60005b8381101561065d578082015181840152602081019050610642565b8381111561066c576000848401525b50505050565b61067b826106e6565b810181811067ffffffffffffffff8211171561069a576106996106a3565b5b80604052505050565b7f4e487b7100000000000000000000000000000000000000000000000000000000600052604160045260246000fd5b600080fd5b600080fd5b600080fd5b600080fd5b6000601f19601f8301169050919050565b610700816105e8565b811461070b57600080fd5b50565b61071781610606565b811461072257600080fd5b5056fea264697066735822122049c4e90375e72a26fa55c4229b7ad52af6127afd7fc413eb5ef950b543d9bffc64736f6c63430008070033",
  "immutableReferences": {},
  "source": "pragma solidity 0.8.7;\r\n\r\ncontract Register {\r\n\r\n    mapping(address => bool) public EligbleVotersAddresses;\r\n    mapping(bytes32 => bool) public RegisteredStudentHashes;\r\n\r\n    constructor(bytes32[] memory studentHashes) {\r\n        for (uint32 i = 0; i < studentHashes.length; i++){\r\n            RegisteredStudentHashes[studentHashes[i]] = true;\r\n        }\r\n    }\r\n    \r\n    function addStudentHash(bytes32 studentHash) public {\r\n        if (RegisteredStudentHashes[studentHash] == true)\r\n            revert();        \r\n        else\r\n            RegisteredStudentHashes[studentHash] = true;\r\n    }\r\n\r\n    function isEligble(address _address) public view returns(bool) {\r\n        if (EligbleVotersAddresses[_address] == true)\r\n            return true;\r\n        else return false;\r\n    }\r\n    function verify(string memory passcode) public {\r\n        bytes32 hash = sha256(abi.encodePacked(passcode));\r\n\r\n        if (RegisteredStudentHashes[hash] == true) {\r\n            EligbleVotersAddresses[msg.sender] = true;\r\n        }\r\n    }\r\n\r\n}",
  "sourcePath": "E:\\LMU\\Semester 3\\Data Security\\DApp\\registration_dapp\\contracts\\Register.sol",
  "compiler": {
    "name": "solc",
    "version": "0.8.7+commit.e28d00a7.Emscripten.clang"
  },
  "schemaVersion": "3.4.11",
  "updatedAt": "2023-02-04T23:08:32.498Z",
  "networkType": "ethereum",
  "devdoc": {
    "kind": "dev",
    "methods": {},
    "version": 1
  },
  "userdoc": {
    "kind": "user",
    "methods": {},
    "version": 1
  }
}